:020000040800F2
:10000000880500206D030008594A0008F7430008DE
:100010006549000857060008315E0008000000002E
:10002000000000000000000000000000D94E0008A1
:10003000310B000800000000974C0008DB4E000860
:100040008B0300088B0300088B0300088B03000858
:100050008B0300088B0300088B0300088B03000848
:100060008B0300088B0300088B030008E1060008DF
:100070008B0300088B0300088B0300088B03000828
:100080008B0300088B0300088B0300088B03000818
:100090008B0300088B0300088B0300088B03000808
:1000A0008B0300088B0300088B0300088B030008F8
:1000B0008B0300088B0300088B0300088B030008E8
:1000C0008B0300088B0300088B0300088B030008D8
:1000D0008B0300088B0300088B0300088B030008C8
:1000E0008B0300088B030008000000008B0300084E
:1000F0008B0300088B0300088B030008ED06000843
:100100008B0300088B0300088B0300088B03000897
:100110008B0300088B030008515000088B03000874
:100120008B0300088B0300088B0300088B03000877
:100130008B0300088B0300088B0300088B03000867
:1001400000000000000000000000000000000000AF
:100150008B0300088B0300088B0300088B03000847
:100160008B0300088B0300088B0300088B03000837
:100170008B0300088B0300088B03000800000000BD
:100180008B0300088B0300088B0300088B03000817
:100190008B0300088B0300088B0300088B03000807
:1001A0008B0300088B0300088B030008000000008D
:1001B0008B0300088B0300088B0300088B030008E7
:1001C0008B0300088B030008000000000000000003
:1001D00000000000000000008B0300080000000089
:1001E000000000000000000000000000000000000F
:1001F00000000000000000008B0300088B030008D3
:100200008B0300088B030008000000008B0300082C
:100210008B0300088B0300088B0300088B03000886
:100220008B030008000000008B03000800000000A2
:100230008B0300088B030008000000008B030008FC
:100240008B0300088B0300088B0300088B03000856
:100250008B0300088B0300088B0300088B03000846
:100260008B0300088B0300088B0300088B03000836
:100270008B0300088B0300088B03000800000000BC
:100280008B0300088B0300088B0300088B03000816
:10029000000000008B0300088B0300080000000032
:1002A000000000008B0300088B0300088B0300088C
:1002B0008B0300088B0300088B0300088B030008E6
:1002C0008B0300088B0300088B03000800F002F882
:1002D00000F03CF80AA090E8000C82448344AAF1A4
:1002E0000107DA4501D100F031F8AFF2090EBAE8A2
:1002F0000F0013F0010F18BFFB1A43F0010318475A
:10030000105F0000405F0000103A24BF78C878C139
:10031000FAD8520724BF30C830C144BF04680C600B
:10032000704700000023002400250026103A28BF53
:1003300078C1FBD8520728BF30C148BF0B60704757
:100340001FB505F040FF1FBD10B510BD00F04AF904
:100350001146FFF7F5FF05F02FFE00F068F903B432
:10036000FFF7F2FF03BC00F06FF900000A48804776
:100370000A4880470A480047FEE7FEE7FEE7FEE737
:10038000FEE7FEE7FEE7FEE7FEE7FEE70548064973
:10039000064A074B70470000650C0008794F0008BB
:1003A000CD02000888030024880500208805002469
:1003B0008801002053EA020C00F069802DE9F04B1F
:1003C0004FF00006002B1FBFB3FA83F503FA05F4C4
:1003D00024FA05F65E4012BF1643B2FA82F502FA1D
:1003E00005F4C5F120051EBF22FA05FC44EA0C0401
:1003F000203556EA044C4FEA144418BF641C4FF0F1
:1004000000084FF00009904271EB030C39D300292A
:1004100019BFB1FA81F701FA07F6B0FA80F700FACE
:1004200007F6C7F120071EBF20FA07FC46EA0C06B4
:100430002037B6FBF4FCA7EB0507103F07F01F0BB6
:10044000CBF120060CFA0BFB2CFA06F644BFB346A0
:100450000026202FA4BF5E464FF0000B5BEA060C7F
:1004600008BF4FF0010B19EB0B09ABFB027C48EB0B
:100470000608C01B06FB02CC0BFB03CC71EB0C0186
:10048000C1E70B46024641464846BDE8F08B13B52E
:100490004FF000004FF00001AFF30080BDE81C40BA
:1004A0007047032A40F2308010F0030C00F01580F2
:1004B00011F8013BBCF1020F624498BF11F801CB67
:1004C00000F8013B38BF11F8013BA2F1040298BFCC
:1004D00000F801CB38BF00F8013B11F0030300F036
:1004E0004F80083AC0F0088051F8043B083A51F8B0
:1004F00004CBA0E80810F5E7121D5CBF51F8043BDF
:1005000040F8043BAFF30080D20724BF11F8013B51
:1005100011F801CB48BF11F8012B24BF00F8013BB3
:1005200000F801CB48BF00F8012B70474FF00002E4
:1005300000B5134694469646203922BFA0E80C50D9
:10054000A0E80C50B1F12001BFF4F7AF090728BFB4
:10055000A0E80C5048BF0CC05DF804EB890028BF30
:1005600040F8042B08BF704748BF20F8022B11F059
:10057000804F18BF00F8012B7047704770477047D5
:1005800010B5203AC0F00B80B1E81850203AA0E82E
:100590001850B1E81850A0E81850BFF4F5AF5FEA62
:1005A000027C24BFB1E81850A0E8185044BF18C915
:1005B00018C0BDE810405FEA827C24BF51F8043BBC
:1005C00040F8043B08BF7047D20728BF31F8023B10
:1005D00048BF11F8012B28BF20F8023B48BF00F8A4
:1005E000012B7047754600F02BF8AE4605006946B2
:1005F000534620F00700854618B020B5FFF7C6FE29
:10060000BDE820404FF000064FF000074FF0000813
:100610004FF0000B21F00701AC46ACE8C009ACE894
:10062000C009ACE8C009ACE8C0098D46704710B5F8
:100630000446AFF300802046BDE81040FFF78FBEB0
:10064000004870472803002401491820ABBEFEE78C
:10065000260002007047FEE710B5034C0120A07091
:1006600000F00EFB606010BD3800002441EA00205D
:1006700000B200EE100A9FED051AF3EE000AB8EE84
:10068000C00A20EE010A20EE200A70470000003860
:1006900041EA002000B200EE100A9FED051ADFEDDE
:1006A000050AB8EEC00A20EE010A20EE200A7047C3
:1006B000000000380000FA4441EA002000B200EED9
:1006C000100A9FED051ADFED050AB8EEC00A20EE0C
:1006D000010A20EE200A7047000000380000B443F1
:1006E000014800F0DDBA000094000020014800F04D
:1006F000D7BA00000C010020294A016891423AD083
:10070000274A1832914236D0254A3032914232D0AF
:10071000234A483291422ED0214A603291422AD057
:100720001F4A7832914226D01D4A9032914222D0FF
:100730001B4AA83291421ED01A4A91421BD0194A34
:100740001832914217D0174A3032914213D0154ACD
:10075000483291420FD0134A603291420BD0114A75
:100760007832914207D00F4A9032914203D00D4A1D
:10077000A832914211D1CAB21823103AB2FBF3F257
:100780006FF30901032A02F00703074AD25CC2652E
:1007900000D9091D81650846704721F0FF01F9E77E
:1007A0001000024010040240D061000830B5224A17
:1007B000012301689142CAB21BD01F4C1434A142DC
:1007C00017D01D4C2834A14213D01B4C3C34A142FD
:1007D0000FD0194C5034A1420BD0174C6434A142B5
:1007E00007D0154C7834A14203D0134C8C34A1426D
:1007F0000CD11421114C083AB2FBF1F10F4A8032AE
:1008000001F01F0504EB8101AB4010E00C4D1824F2
:10081000103A0D44B2FBF4F1A82D00D80831094A72
:1008200001F01F0402EB8101064AA34080326030D0
:1008300080E80E0030BD00000854025800580258ED
:10084000F0FBFDBF0008024010B50279531E072BD4
:100850002DD8174C0168A1421BD0154C1434A1426D
:1008600017D0134C2834A14213D0114C3C34A14270
:100870000FD00F4C5034A1420BD00D4C6434A14228
:1008800007D00B4C7834A14203D0094C8C34A142E0
:1008900003D10849074C443102E00749064C443172
:1008A00004EB8202C0E91B2101219940416710BD80
:1008B00008540258FC580258FC08024010B58369DD
:1008C0004FF0C074826A0146002053B1B3F5005F57
:1008D00015D072B1012A0CD0022A0AD0032A09D1FC
:1008E00004E01AB1012A06D0022A03D1C96AC9015B
:1008F00000D5012010BDC96AA142FAD010BD002A5E
:10090000F7D0012AF2D0022AF3D0032AF3D010BD87
:100910002DE9F04F804E804FDFF8FC911836DFF85C
:10092000F8A148370468856D0AF1300ADFF8ECB1A8
:100930004C45DFF8ECC1DFF8ECE16DD0B4426BD090
:10094000544569D0BC4267D0DFF8D081A8F11808BF
:10095000444561D05C455FD064455DD074455BD053
:10096000DFF8C481444557D0DFF8BC8108F118088E
:10097000444551D0DFF8B08108F1300844454BD0F0
:10098000DFF8A48108F14808444545D0DFF8988194
:1009900008F1600844453FD0DFF88C8108F1780801
:1009A000444539D0DFF8808108F19008444533D0C0
:1009B000DFF8748108F1A80844452DD0DFF86C8178
:1009C000444529D0DFF8648108F11408444523D058
:1009D000DFF8588108F1280844451DD0DFF84C8124
:1009E00008F13C08444517D0DFF8408108F1500871
:1009F000444511D0DFF8348108F1640844450BD038
:100A0000DFF8288108F17808444505D0DFF81C811B
:100A100008F18C08444509D1D0E91948C4F804808C
:100A2000C46E1CB1D0E91C48C4F8048004684C456D
:100A30002ED0B4422CD054452AD0BC4228D0374EB8
:100A4000183EB44224D05C4522D0644520D0744581
:100A50001ED0354EB4421BD0334E1836B44217D098
:100A6000314E3036B44213D02F4E4836B4420FD0F8
:100A70002D4E6036B4420BD02B4E7836B44207D0A0
:100A8000294E9036B44203D0274EA836B44215D131
:100A900090F85C603F2406F01F06B440AC60046828
:100AA000256825F4802525602EE09A600068C160E5
:100AB000BDE8F08F99600068C260F9E71B4EB44250
:100AC0001BD01A4E1436B44217D0184E2836B442F2
:100AD00013D0164E3C36B4420FD0144E5036B442AA
:100AE0000BD0124E6436B44207D0104E7836B44262
:100AF00003D00E4E8C36B442DAD190F85C600124FB
:100B000006F01F06B4406C60046863608368402B85
:100B10000368CFD1C9E700001000024088000240FE
:100B2000A0000240B80002401004024008540258DD
:100B30007047000070EE600A204A9FED210A11B153
:100B4000012911D02CE092ED000A00EE810A82ED1D
:100B5000000A90ED063A90ED022AD0ED012AD0ED80
:100B6000001AC0ED060A0FE092ED010A00EE810ABC
:100B700082ED010A90ED073A90ED052AD0ED042AA6
:100B8000D0ED031AC0ED070A30EEC33A22EE800A18
:100B900062EE032A01EEA00A82EE812A32EE000AFA
:100BA000084A094910EE100A904203D310EE100AC9
:100BB000884201DAB2EE040A704700000400002403
:100BC00000000000000020C1000020410A483C2134
:100BD00010B502F0ADFF09483C2102F0A9FF08481A
:100BE000002101F07FF8044947F6FF700968486268
:100BF00002490968486210BDAC0100244402002487
:100C0000DC0000240B6847F6FF729FED112BDFED2F
:100C1000120A9FED121A5B6A036009684A62016852
:100C2000511AC1EB0111890000EE101AB8EEC03B59
:100C300083EE024BB7EEC40B80ED010AD0ED021A31
:100C400061EEA00A40EE010AC0ED020A7047000002
:100C50001F85EB51B81EF53FCDCC4C3ECDCC4C3F63
:100C600072B6FEE7054805490839026842F00202FB
:100C7000026008688004FCD5704700000C480258E8
:100C800001480068406A7047DC02002402493422AF
:100C9000024803F0FBBA0000A80000240000002076
:100CA0002DE9FC5F0446F74E0020DFF8D883009062
:100CB0004FF41652F44808F11808A56DDFF8C493F4
:100CC000DFF8C0A3016809F1300920680AF1480A79
:100CD000B1FBF2F1B04201912F68D5F800C0DFF806
:100CE000ACB335D04146884232D0484530D050452B
:100CF0002ED058452CD0E5491831884228D0E349F8
:100D00003031884224D0E1494831884220D0E0493E
:100D100088421DD0DE491831884219D0DC49303173
:100D2000884215D0DA494831884211D0DFF860E3B3
:100D30000EF1600E70450BD0D54A7832904207D044
:100D4000D34B9033984203D0D149A83188427DD10A
:100D500094F85C20082102F01F0201FA02F23A42E4
:100D60004AD0B04232D0404530D048452ED05045D0
:100D70002CD058452AD0C54A1832904226D0C34AB2
:100D80003032904222D0C14A483290421ED0C04AEE
:100D900090421BD0BE4A1832904217D0BC4A303223
:100DA000904213D0BA4A483290420FD0B84A6032CB
:100DB00090420BD0B64A7832904207D0B44A903273
:100DC000904203D0B24AA832904203D1026802F0A6
:100DD000040202E0026802F008026AB1026822F02E
:100DE0000402026094F85C0000F01F008140A960DA
:100DF000606D40F00100606594F85C00012100F036
:100E00001F008140394240D02068B04234D0404574
:100E100032D0484530D050452ED058452CD09B4A32
:100E20001832904228D0994A3032904224D0974AC2
:100E30004832904220D0964A90421DD0944A1832AF
:100E4000904219D0924A3032904200E0AFE113D084
:100E50008F4A483290420FD08D4A603290420BD078
:100E60008B4A7832904207D0894A9032904203D020
:100E7000874AA83290427DD1406910F0800F04D09B
:100E8000A960606D40F00200606594F85C00042188
:100E900000F01F00814039423ED02068B04232D07D
:100EA000404530D048452ED050452CD058452AD00A
:100EB000764A1832904226D0744A3032904222D07C
:100EC000724A483290421ED0714A90421BD0704AFA
:100ED0001832904217D06E4A3032904213D06C4A8A
:100EE000483290420FD06A4A603290420BD0684A32
:100EF0007832904207D0664A9032904203D0644ADA
:100F0000A83290424ED1006810F0020F04D0A960C0
:100F1000606D40F00400606594F85C00102100F002
:100F20001F008140394258D02068B04234D040453B
:100F300032D0484530D050452ED058452CD0534A59
:100F40001832904228D0514A3032904224D04F4A31
:100F50004832904220D04E4A90421DD04C4A18321E
:100F6000904219D04A4A3032904215D0484A48320D
:100F7000904200E014E00FD0454A603290420BD01E
:100F8000434A7832904207D0414A9032904203D08F
:100F90003F4AA832904207D1006800F0080006E0FE
:100FA000006872E70068B7E7006800F00400A0B1CD
:100FB000A96020680168490304D50068000308D5CA
:100FC000A16C07E00168C90503D4016821F008019C
:100FD0000160216C09B12046884794F85C0020210B
:100FE00000F01F008140394279D02068B04232D0F1
:100FF000404530D048452ED050452CD058452AD0B9
:10100000224A1832904226D0204A3032904222D0D2
:101010001E4A483290421ED01D4A90421BD01C4AA4
:101020001832904217D01A4A3032904213D0184AE0
:10103000483290420FD0164A603290420BD0144A88
:101040007832904207D0124A9032904203D0104A30
:10105000A832904203D1006800F0100002E000685E
:1010600000F00200B0B3A96094F8350004282068AD
:1010700001680FD049037ED5006800032BD4616C52
:101080002AE00000100002406400002470000240CA
:101090001004024021F0160101602068416921F02E
:1010A00080014161206C08B9A06C20B12068016802
:1010B00021F00801016094F85C303F21012003F029
:1010C0001F0300229940A96084F8350084F8342079
:1010D000216D65E003E0E16B09B120468847606D52
:1010E00000287DD0606DC00759D02068042184F8A5
:1010F0003510B0422BD0404529D0484527D0504527
:1011000025D0584523D09D49884220D09B4918318D
:1011100088421CD099493031884218D09849884279
:1011200015D097491831884211D0954930318842FD
:101130000DD093494831884209D0914960318842A5
:1011400005D08F497831884201D08D4990310168AE
:1011500021F00101016020680099019A491C009169
:10116000914202D80168C907F6D10068C00710D0C3
:1011700003200FE0FFE70168C905ACD40368012133
:10118000002223F01003036084F8351084F8342023
:10119000A1E7012084F83500002084F83400E16CD8
:1011A00000291DD002B02046BDE8F05F0847754910
:1011B00088421DD073491431884219D071492831B1
:1011C000884215D06F493C31884211D06D49503169
:1011D00088420DD06B496431884209D0694900E0EA
:1011E00084E07831884203D066498C3188427DD1D1
:1011F00094F85C800427016808F01F0807FA08F7D4
:1012000017EA0C0F009746D04F0744D500980F04FB
:10121000686003D5C8033CD4A16CC1E7880638D404
:101220002068B0422DD055496039884229D04845C0
:1012300027D0504525D0584523D05049884220D04A
:101240004E49183188421CD04C493031884218D060
:101250004B49884215D04A491831884211D0484933
:10126000303188420DD046494831884209D0704516
:1012700007D0904205D0984203D04149A831884216
:1012800003D1016821F0080102E0016821F00401A6
:101290000160216C84E7022707FA08F717EA0C0FB0
:1012A00000974ED08F074CD500980F04686003D587
:1012B000C80344D4616C73E7880640D42068B04208
:1012C0002FD02E49603988422BD0484529D050452F
:1012D00027D0584525D02949884222D0274918319E
:1012E00088421ED025493031884200E044E018D0C1
:1012F0002349884215D022491831884211D020490B
:10130000303188420DD01E494831884209D070459D
:1013100007D0904205D0984203D01949A83188429D
:1013200003D1016821F0140102E0016821F00A01F3
:101330000160012184F83510002084F83400E16B4D
:101340002EE7082202FA08F212EA0C0F14D009075D
:1013500012D5016821F00E01016094F85C100120A3
:10136000002201F01F0100FA01F16960606584F854
:10137000350084F8342012E7BDE8FC9F8800024065
:1013800010040240085402582DE9F05F044600F0B2
:101390004DFC002C07467DD0E24E022120684FF024
:1013A0000308DFF884934FF00005DFF880A3B04214
:1013B000DFF87CB334D0DB4A1832904230D0484555
:1013C0002ED050452CD058452AD0D94A18329042B8
:1013D00026D0D74A3032904222D0D54A4832904265
:1013E0001ED0D44A90421BD0D24A1832904217D015
:1013F000D04A3032904213D0CE4A483290420FD079
:10140000CC4A603290420BD0CA4A7832904207D020
:10141000C84A9032904203D0C64AA83290427DD149
:1014200084F83510B04284F834502ED0BD491831BC
:1014300088422AD0484528D0504526D0584524D047
:10144000BB491831884220D0B949303188421CD07C
:10145000B7494831884218D0B649884215D0B549B5
:101460001831884211D0B349303188420DD0B1498A
:101470004831884209D0AF496031884205D0AD4932
:101480007831884201D0AB499031016821F00101E7
:10149000016008E025E100BF00F0C8FBC01B052883
:1014A00001D920211AE120680068C007F4D1D4E9ED
:1014B00002032168103418438E4694E88410D4E95E
:1014C000033809683A4310439B4A40EA0C006769B5
:1014D00018431140103C40EA0800042F40EA010084
:1014E00003D1D4E90B12114308436168A1F1290229
:1014F000052A0BD9163A032A08D9083A012A05D930
:10150000083A032A02D97439032901D840F480101B
:10151000CEF800002068676A406900E020E0042FF0
:1015200020F0070047EA00070DD1D4E90A0107437C
:1015300049B12046FFF7C2F928B14020606501217A
:1015400084F83510CDE0206847612046FFF7D4F8D5
:1015500094F85C203F2102F01F029140816055E029
:10156000764A90421BD0754B1433984217D0734B78
:101570002833984213D0714B3C3398420FD06F4BB5
:10158000503398420BD06D4B6433984207D06B4B6D
:101590007833984203D0694B8C3398427ED184F8DB
:1015A000351084F83450664B0168A26801EA030ED6
:1015B000402A74D0802A73D05FF00002D4E9037807
:1015C000D4E9053142EAD70242EAD8085B4AD4E9B5
:1015D000077C48EAD30848EAD10141EAD7015242E0
:1015E00041EA1C11142341EA0E01016020681044F5
:1015F000B0FBF3F08000E0652046FFF77DF894F83B
:101600005C20012102F01F02914041602068B0423D
:1016100057D044491831884253D0484551D050459D
:101620004FD058454DD042491831884249D04049A1
:101630003031884245D03E494831884241D03D4909
:1016400088423ED03B49183188423AD0394930313E
:10165000884236D037494831884232D035496031E6
:1016600088422ED03349783188422AD0314990318E
:10167000884226D02F49A831884222D02F4988425B
:101680001FD02E49143188421BD02C492831884262
:1016900017D02A493C31884213D002E01DE017E000
:1016A00018E02649503188420BD0244964318842E1
:1016B00007D022497831884203D020498C318842B2
:1016C00029D12046FFF772F8A06880280CD00CE0E2
:1016D000102273E74FF4804270E74021616584F87F
:1016E00035800120BDE8F09F6560216E207908609B
:1016F000D4E9190141606068401E072808D82046D7
:10170000FFF7A2F8E06E0560D4E91C01416002E039
:10171000E566256765670120656584F8350000206A
:10172000E0E7000010000240400002405800024084
:1017300070000240100402403F8010FE085402581E
:101740000F00FEFF2DE9F84F04008C464FF000001B
:10175000009014D094F83400012812D094F8355039
:101760000120002184F83400012D0CD0C0026065F6
:101770000120009084F834100098BDE8F88F012013
:10178000FBE70220F9E78C4D0226206884F83560DB
:10179000A8428A4D61658A4E8A4FDFF82C82DFF8B5
:1017A0002C92DFF82CA2DFF82CB226D0A84224D04D
:1017B000B04222D0B84220D040451ED048451CD06F
:1017C00050451AD0584518D08349884215D08249CF
:1017D0001831884211D08049303188420DD07E497D
:1017E0004831884209D07C496031884205D07A4925
:1017F0007831884201D078499031016821F00101A7
:10180000016061462046FFF783F86B4920688842F3
:101810002CD0A8422AD0B04228D0B84226D0404589
:1018200024D0484522D0504520D058451ED06A4A81
:1018300090421BD0684A1832904217D0664A303224
:10184000904213D0644A483290420FD0624A6032CC
:1018500090420BD0604A7832904207D05E4A903274
:10186000904203D05C4AA83290420CD1026822F028
:101870001E0242F016020260206C88B120680268E5
:1018800042F008020BE0026822F00E0242F00A0267
:101890000260206C20B12068026842F004020260FD
:1018A000206888424BD0A84249D0B04247D0B842C5
:1018B00045D0404543D0484541D050453FD058459C
:1018C0003DD0454A90423AD0434A1832904236D0F1
:1018D000414A3032904232D03F4A483290422ED074
:1018E0003D4A603290422AD03B4A7832904226D01C
:1018F000394A9032904222D0374AA83290421ED0C4
:10190000364A90421BD0354A1432904217D0334A9F
:101910002832904213D0314A3C3290420FD02F4AA5
:10192000503290420BD02D4A6432904207D02B4A5D
:101930007832904203D0294A8C3290420DD1206EE9
:101940000268D20303D5026842F480720260E06E3E
:1019500018B1026842F4807202602068884226D082
:10196000A84224D0B04222D0B84220D040451ED058
:1019700048451CD050451AD0584518D016498842C1
:1019800015D015491831884211D013493031884299
:101990000DD011494831884209D00F496031884241
:1019A00005D00D497831884201D00B49903101684A
:1019B00041F001010160DFE6100002402800024012
:1019C000400002405800024070000240880002407F
:1019D000A0000240B800024010040240085402581F
:1019E00070B5044600F022F90546601C02D0044898
:1019F0000078044400F01AF9401BA042FAD370BDED
:101A0000580000242DE9F84F03247A4D00234FF0AD
:101A100001094FF0B04B4FF00F0AE4E009FA03F66A
:101A2000324078D00F7907F00307012F01D0022F41
:101A30001AD187684FEA430ED1F80CC004FA0EF8A9
:101A400027EA08070CFA0EFC4CEA070CC0F808C09D
:101A5000476891F804C0B743CCF3001C0CFA03FCB0
:101A60004CEA070CC0F804C00E79F643B6070BD059
:101A7000C6684FEA43088F6804FA08FC26EA0C0699
:101A800007FA08F73743C7600E7906F00306022EFF
:101A900012D1DE080F694FEA437C00EB8606B6469A
:101AA000366A4FEADC6C0AFA0CF807FA0CF726EAF9
:101AB00008063743CEF820700F7906684FEA4308CE
:101AC00007F0030704FA08FC07FA08F726EA0C06F1
:101AD000374307604E6816F4403F1CD0464E3768C7
:101AE00047F00207376036689F0706F00206009647
:101AF00023F0030606F1B046B6463F0FD6F8086459
:101B0000DFF8F8800AFA07FC404526EA0C0603D104
:101B10004FF0000C3AE065E0DFF8E4C0604502D128
:101B20004FF0010C32E0DFF8DCC0604502D14FF02D
:101B3000020C2BE0DFF8D0C0604502D14FF0030C5F
:101B400024E0DFF8C8C0604502D14FF0040C1DE06E
:101B5000DFF8BCC0604502D14FF0050C16E0DFF89D
:101B6000B4C0604502D14FF0060C0FE0DFF8A8C00A
:101B7000604502D14FF0070C08E0DFF8A0C06045D7
:101B800002D14FF0090C01E04FF00A0C0CFA07FCEF
:101B90004CEA060CCEF808C44F68DBF80060FF0280
:101BA00026EA020600D516435F46CBF80060D1F85E
:101BB00004C0DBF804605FEA8C2C26EA020600D53C
:101BC00016437E606E684F6826EA0206BF0300D5A2
:101BD00016436E602E684F6826EA0206FF0300D5A2
:101BE00016432E605B1C0A6832FA03F67FF416AFC8
:101BF000BDE8F88F80000058F444025800000258F5
:101C00000004025800080258000C02580010025844
:101C10000014025800180258001C025800240258F0
:101C20000AB1816170470904FBE700000148806840
:101C3000704700005800002402488168027811446F
:101C40008160704758000024032010B500F0C6F9E9
:101C500001F068F90F4A104914681368C4F30322AD
:101C600003F00F038A5CC95C02F01F0201F01F0140
:101C7000D0400A4A20FA01F11160094908600F209A
:101C800000F010F808B1012010BD00F06BF9002041
:101C900010BD0000184402580062000868000024CB
:101CA0006400002470B50D4D04462878A0B14FF4AF
:101CB0007A71B1FBF0F00A490968B1FBF0F001F06C
:101CC00060FC48B9102C07D200222146501E00F0BB
:101CD00065F900206C6070BD012070BD58000024C3
:101CE0006400002470B504460220102584F83600F4
:101CF0002268E068D36823F006031843D0602068A8
:101D0000C26842F08072C2602068026942F001023B
:101D1000026120684560206881611021204602F040
:101D20006BFB032808D020680121026942F00402FD
:101D3000026184F83610002070BD00002DE9F047E4
:101D4000040005D094F836004FF6FF7518B108E08E
:101D50000120BDE8F087002084F83500204600F01F
:101D60005DF8022084F836004FF4000AD4E90063DD
:101D7000F268012B02D0A06A504501D122F01E0268
:101D80006169A946494502D04EF2C0008243D4F8A9
:101D900008C0D4E9087843EA0C00DFF870C0A56AEF
:101DA00047EA080740EA070002EA0C0240EA050099
:101DB00040EA0200DBB1012B01D0554503D1D4E943
:101DC00003231A431043494505D0D4E90632194389
:101DD000024341EA0200F0600D492068884202D0C7
:101DE0000C49884208D1D4E90B12114308E0236959
:101DF000E2691A431043E0E70749884201D1E16AEA
:101E00004162012084F836000020A2E7FEF119FFAC
:101E1000002400400024005800280058F0B5B5B058
:101E2000044614212EA8FEF781FBB8216846FEF770
:101E30007DFB2149206888423BD10020269040212B
:101E40000446CDE90010684600F05AFA08B1FEF7E2
:101E500007FF1A48016841F400710160006800F44E
:101E60000070339015481438016841F00201016098
:101E7000016801F002013391016841F0080101603D
:101E8000006802252EA900F00800339001266802A0
:101E9000032781E861000A48CDE93147FFF7B2FD29
:101EA0002EA9A80281E861000648CDE93147FFF775
:101EB000A9FD35B0F0BD000000240058F4440258DC
:101EC00000040258000C0258154BF0B5083B42784C
:101ED00013491A600B680A1F23F001030B60436863
:101EE0001360057BC67A827A437B2D07847B45EAA3
:101EF0000665C77B90F809C0067A90F800E045EACD
:101F0000C24040EA834040EA444040EA074040EA99
:101F10000C2040EA460040EA0E000860F0BD0000D8
:101F2000A0ED00E0BFF35F8F044800210368034A7F
:101F300023F48033036070321160704724ED00E0B9
:101F4000074A40F00100064970321060086840F40A
:101F500080300860BFF34F8FBFF36F8F7047000072
:101F600024ED00E0054808B5016841F00201016078
:101F7000006800F00200009008BD0000F444025820
:101F8000002809DB410900F01F028900012001F14E
:101F9000E0219040C1F80001704700000E4BF0B402
:101FA0001B680D46C3F30223C3F10706042E00D9B4
:101FB0000426191D072901D2002300E0DB1E01249D
:101FC00004FA06F19C40491E2940641E99401440C1
:101FD0002143F0BC03F02DBF0CED00E0064900F0FA
:101FE000070210B54FF6FF040868044B204040EA92
:101FF00002201843086010BD0CED00E00000FA0557
:10200000134970B50A68D243520705D5096801F033
:102010000701814213D118E00A6822F00702024347
:102020000A60FFF703FE0A4D4FF47A760446083D36
:1020300007E000BFFFF7FAFD001BB04201D9012005
:1020400070BD2868C0438004F4D4002070BD000037
:102050000C48025810B500F01FFF05490968054AF1
:10206000C1F30211515C01F01F01C84010BD000016
:102070002044025800620008494930B5484C0B1D05
:102080000A68143409681D68246802F00303C5F364
:102090000012C1F30531C4F3CC04002914FB02F291
:1020A00000EE102AF8EE400A75D03F4A9FED3D1A27
:1020B000B7EE000A6BB1DFED3D1A012B01D0022B08
:1020C00064D002EE101A1168F8EE422A81EEA22ABC
:1020D00021E0334C283C23689B0612D5344B2468FE
:1020E00001EE901A1168C4F3C104F8EE612AE340CE
:1020F00001EE903AC1F30801F8EE611A81EEA22ACE
:102100000BE001EE901ADFED2B2A00BFF8EE611A0A
:10211000116882EEA12AC1F3080101EE901A11683C
:10212000F8EE611A40EE811A71EE800A62EE200A22
:10213000C1F3462101EE101AB8EE411A31EE001A31
:10214000C0EE811ABCEEE11A80ED001A1168C1F3ED
:10215000064101EE101AB8EE411A31EE001AC0EE37
:10216000811ABCEEE11A80ED011A1168C1F3066113
:1021700001EE101AB8EE411A31EE000A80EE801A14
:10218000BCEEC10A80ED020A30BD04E001EE901AF7
:10219000DFED092ABAE70021016041608160F3E7C1
:1021A0002844025800000039384402580024744A78
:1021B0000090D0030024744C20BCBE4B494930B57C
:1021C000484C0B1D0A681C3409681D68246802F01D
:1021D0000303C5F30022C1F30551C4F3CC04002965
:1021E00014FB02F200EE102AF8EE400A75D03F4AC6
:1021F0009FED3D1AB7EE000A6BB1DFED3D1A012BE2
:1022000001D0022B64D002EE101A1168F8EE422AB7
:1022100081EEA22A21E0334C283C23689B0612D58C
:10222000344B246801EE901A1168C4F3C104F8EE2F
:10223000612AE34001EE903AC1F30801F8EE611A19
:1022400081EEA22A0BE001EE901ADFED2B2A00BFEF
:10225000F8EE611A116882EEA12AC1F3080101EEBD
:10226000901A1168F8EE611A40EE811A71EE800A38
:1022700062EE200AC1F3462101EE101AB8EE411AAF
:1022800031EE001AC0EE811ABCEEE11A80ED001AA0
:102290001168C1F3064101EE101AB8EE411A31EE91
:1022A000001AC0EE811ABCEEE11A80ED011A116825
:1022B000C1F3066101EE101AB8EE411A31EE000AC0
:1022C00080EE801ABCEEC10A80ED020A30BD04E047
:1022D00001EE901ADFED092ABAE7002101604160A2
:1022E0008160F3E728440258000000394044025856
:1022F0000024744A0090D0030024744C20BCBE4BD0
:102300002DE9FE4F0546DFF800A450F8081B002415
:10231000FD4FC943019005F1280026460AF1240A21
:10232000009008011DD4686E50B1B0F5801F0CD02C
:10233000B0F5001F0ED0B0F5401F1ED001240FE0F5
:10234000386840F40030386017E00198022102F04C
:10235000A3FC03E00098022102F02EFD04000CD043
:1023600026462888C043C00523D4A86D05281ED260
:10237000DFE800F00C11161B1B006A6EDAF8001083
:1023800021F440111143CAF80010EAE7386840F41C
:102390000030386009E00198002102F07DFC03E084
:1023A0000098002102F008FD0446C4B100E00124B9
:1023B00026462888DFF85083C04308F12C084005E2
:1023C0002FD4D5F8A400B0F5C00F28D010DCB8B1D8
:1023D000B0F5001F19D0B0F5800F0FD11AE0AA6D2B
:1023E000DAF8001021F007011143CAF80010E0E705
:1023F000B0F5000F13D0B0F5200F10D001240FE07E
:10240000386840F40030386009E00198002102F09B
:1024100043FC03E00098002102F0CEFC044694B196
:1024200026462888C043000530D4D5F8A800B0F16E
:10243000407F29D011DCC0B1B0F1807F1AD0B0F15B
:10244000007F10D11BE0D5F8A420D8F8001021F4AB
:1024500060011143C8F80010E3E7B0F1806F13D0BA
:10246000B0F1A06F10D001240FE0386840F40030C4
:10247000386009E00198002102F00EFC03E00098AA
:10248000002102F099FC044694B126462868DFF842
:1024900078B2C0430BF1200B80011FD4E86CD8B197
:1024A00010280FD0202812D0302815D0012414E095
:1024B000D5F8A820D8F8001021F0E0611143C8F841
:1024C0000010E3E7386840F40030386004E0019819
:1024D000022102F0E1FB044674B126462888C0437D
:1024E000C0042BD4E86DB0F5005F20D00DDCA0B1A6
:1024F000B0F5805F0FD115E0EA6CDBF8001021F039
:1025000030011143CBF80010E8E7B0F5405F13D07D
:10251000B0F5804F10D001240FE0386840F400304F
:10252000386009E00198002102F0B6FB03E0009852
:10253000002102F041FC04468CB126462888C043A5
:10254000800429D4286EB0F5403F23D010DC08B3B6
:10255000B0F5803F14D0B0F5003F0FD115E0EA6D23
:10256000DAF8001021F4E0411143CAF80010E5E761
:10257000B0F5802F0ED0B0F5A02F0BD001240AE0CB
:102580000198012102F088FB03E00098012102F08C
:1025900013FC044694B126462888C04340042AD43C
:1025A000D5F8AC00B0F1405F23D010DC08B3B0F137
:1025B000805F14D0B0F1005F0FD115E02A6EDAF819
:1025C000001021F4E0211143CAF80010E4E7B0F153
:1025D000804F0ED0B0F1A04F0BD001240AE001983B
:1025E000012102F059FB03E00098012102F0E4FB15
:1025F000044674B126462888C04300041FD4E86E00
:10260000D8B1B0F1805F0ED0B0F1005F10D00124DE
:1026100014E0D5F8AC20D8F8001021F0E0411143C7
:10262000C8F80010E7E7386840F40030386004E08C
:102630000198012102F030FB044674B12646286857
:10264000C043C0011ED4A86CD0B101280ED002280E
:1026500011D0032814D0012413E0EA6EDAF8001038
:1026600021F040511143CAF80010E8E7386840F4FF
:102670000030386004E00198022102F00DFB0446AE
:102680006CB126462868C043400255D41F480168F3
:1026900041F480710160FFF7C9FA81460EE0AA6C2F
:1026A000DBF8001021F003011143CBF80010E9E73B
:1026B000FFF7BCFAA0EB090064283BD81348006878
:1026C000C005F5D5BCBBDFF84090B5F8B01009F1F6
:1026D0004409D9F8000001F4407100F440708842C8
:1026E00011D0D9F80010D9F8002021F4407142F43B
:1026F0008032C9F80020D9F8002022F48032C9F8CD
:102700000020C9F8001003E02C4402580048025889
:10271000D5F8B000B0F5807F19D1FFF787FA0290A5
:1027200011E000BFFFF782FA0299411A41F28830A6
:10273000814208D9032426462878DFF81494C04340
:10274000C00721D03CE0D9F800008007EAD5D5F8D1
:10275000B010C1F301200328FE480DD0016821F418
:102760007C510160B5F8B020D9F80010C2F30B021B
:102770001143C9F80010DFE7F74A036802EA1112B3
:1027800023F47C511143ECE7A86F182816D005DC20
:10279000A0B1082808D0102804D10AE020280DD0C4
:1027A00028280BD001240AE00198012102F074FAD4
:1027B00003E00098012102F0FFFA044664B12646C6
:1027C0002878C04380071ED4686F062819D2DFE836
:1027D00000F0160C11161616AA6FD9F8001021F089
:1027E00038011143C9F80010EAE70198012102F00D
:1027F00053FA03E00098012102F0DEFA04467CB1AE
:1028000000E0012426462878C04340071FD4D5F8AD
:102810009000062819D2DFE800F0160C11161616E3
:102820006A6FD9F8001021F007011143C9F80010B0
:10283000E9E70198012102F02FFA03E00098012155
:1028400002F0BAFA0446A4B100E001242646287832
:10285000C04380062BD4D5F88C00B0F1405F24D063
:1028600011DC10B3B0F1805F15D0B0F1005F10D172
:1028700016E0D5F89020D8F8001021F00701114398
:10288000C8F80010E3E7B0F1804F0ED0B0F1A04FD0
:102890000BD001240AE00198002102F0FDF903E0C9
:1028A0000098022102F088FA044694B1264628785E
:1028B000C04340062BD4D5F89800B0F5406F24D023
:1028C00011DC10B3B0F5806F15D0B0F5006F10D1EA
:1028D00016E0D5F88C20D9F8001021F0E041114322
:1028E000C9F80010E3E7B0F5805F0ED0B0F5A05F47
:1028F0000BD001240AE00198002102F0CDF903E099
:102900000098022102F058FA044694B1264628782D
:10291000C04300062BD4D5F89C00B0F5C04F24D09E
:1029200011DC10B3B0F5005F15D0B0F5804F10D1B9
:1029300016E0D5F89820D8F8001021F4E0511143A2
:10294000C8F80010E3E7B0F5004F0ED0B0F5204F07
:102950000BD001240AE00198002102F09DF903E068
:102960000098022102F028FA044654B1264628783D
:10297000C04300071ED4D5F88000B0F5805F0AD0B0
:102980000FE0D5F89C20D8F8001021F460411143E5
:10299000C8F80010EBE70098022102F00DFA00B130
:1029A0000126D5F88020D9F8001021F440511143B8
:1029B000C9F800102878C043C00613D4D5F8940095
:1029C000B0F5807F05D10098022102F0F5F900B141
:1029D0000126D5F89420D8F8001021F44071114355
:1029E000C8F800102868C043000316D4D5F8A0002A
:1029F00038B1B0F5803F09D0B0F5003F0BD00124CD
:102A00000AE00198002102F047F903E00098022152
:102A100002F0D2F904468CB126462868C043400330
:102A200022D4D5F88400B0F5801F11D0B0F5001F76
:102A300013D0B0F5401F15D0012414E0D5F8A02024
:102A4000D8F8001021F440311143C8F80010E4E731
:102A5000386840F40030386004E00098012102F04A
:102A6000ABF904465CB126462868C043C0031CD4B9
:102A7000286D70B1B0F5803F10D0012414E0D5F876
:102A80008420D9F8001021F440111143C9F8001036
:102A9000EAE7386840F40030386004E00198022129
:102AA00002F0FAF80446DCB126462868C0438000EC
:102AB00005D40098022102F07FF900B101262868B0
:102AC000C04380031BD4E86FB8B1B0F5807F10D04D
:102AD000B0F5007F11D0B0F5407F0ED001240DE09D
:102AE0002A6DDBF8001021F480311143CBF800107F
:102AF000DBE7386840F4003038607CB3264628684D
:102B0000C043C00207D42A6FDAF8001021F0004158
:102B10001143CAF800102868C043800207D4AA6E87
:102B2000DAF8001021F080711143CAF8001028680B
:102B3000C043400009D40748016821F40041016006
:102B40000168D5F8B420114301602868C04306E04D
:102B50005444025810440258CFFFFF001DE007D430
:102B60006A6DDBF8001021F040511143CBF80010E2
:102B70002868C043000208D4D5F88820D9F800108E
:102B800021F440011143C9F8001028790024C04302
:102B900000F00100204309D00EE0EA6FD9F80010E0
:102BA00021F440711143C9F80010A8E701980021F1
:102BB00002F072F800B106462879C04300F0020026
:102BC000204305D10198012102F066F800B10646C4
:102BD0002879C04300F00400204305D10198022168
:102BE00002F05AF800B106462879C04300F0080008
:102BF000204305D10098002102F0DEF800B106461E
:102C00002879C04300F01000204305D1009801212D
:102C100002F0D2F800B106462879C04300F0200047
:102C2000044304D10098022102F0C6F800B916B19D
:102C30000120BDE8FE8F0020FBE700002DE9F05FDA
:102C400004000F467ED0DFF83882D8F8000000F08C
:102C50000F00B8420CD2D8F8001021F00F01394310
:102C6000C8F80010D8F8000000F00F00B84269D191
:102C70002078844D40070AD52069296801F0700149
:102C8000884204D9296821F0700101432960207825
:102C90007C4E361D00070AD56069316801F070016D
:102CA000884204D9316821F07001014331602078F5
:102CB000C0060AD5A069316801F4E061884204D9F0
:102CC000316821F4E061014331602078DFF8B4B16C
:102CD00080060BF1080B0CD5E1695846DBF80020A3
:102CE00002F07002914204D9026822F070020A4395
:102CF0000260207880070AD5E068296801F00F019A
:102D0000884204D9296821F00F0101432960207805
:102D1000C0073ED05B49A2682868183920F470606B
:102D2000104328606068022818D0032819D0096869
:102D3000012819D0490700294ADADFF848A1AAF189
:102D4000080A00E044E0DAF8002022F0070202431B
:102D5000CAF80020FEF76AFF814612E0096889037D
:102D6000E9E709688901E6E7C905E4E7FEF75EFFE0
:102D7000A0EB090141F28830814202D90320BDE86D
:102D8000F09F6168DAF8000000F03800B0EBC10F86
:102D9000ECD1207880070AD5E068296801F00F019E
:102DA000884204D2296821F00F0101432960D8F834
:102DB0000010404601F00F01B9420BD9016821F023
:102DC0000F0139430160006800F00F00B84201D0E4
:102DD0000120D4E7207840070AD52069296801F04E
:102DE0007001884204D2296821F0700101432960F2
:102DF000207800070AD56069316801F070018842C7
:102E000004D2316821F07001014331602078C0069E
:102E10000AD5A069316801F4E061884204D23168C2
:102E200021F4E06101433160207880060CD5E1692E
:102E30005846DBF8002002F07002914204D202688A
:102E400022F070020A43026000F06CF80E492A6812
:102E50002B68C2F3032203F00F038A5CC95C02F003
:102E60001F0201F01F01D040084A20FA01F1116051
:102E70000749086007480068BDE8F05FFEF712BF29
:102E80000020005218440258006200086800002424
:102E9000640000245C00002430B500F043F80B4AC5
:102EA0000B490C4B15681468C5F3032204F00F049A
:102EB0008A5C095D02F01F0201F01F01D040064A42
:102EC00020FA01F119601060084630BD184402581C
:102ED00000620008680000246400002400B5FFF7C9
:102EE000DBFF05490968054AC1F30211515C01F095
:102EF0001F01C84000BD00001C44025800620008C9
:102F000000B5FFF7C9FF05490968054AC1F3022169
:102F1000515C01F01F01C84000BD00001C44025874
:102F200000620008454970B545480968434B103BAD
:102F300011F0380208D00111082A03D0102A0BD052
:102F4000182A0BD0084670BD19688906FBD5196888
:102F5000C1F3C101C84070BD3A4870BD3749374D13
:102F600018310C1D24350A68096826682D6802F09E
:102F7000030406F00102C1F30511C5F3CC0515FBEE
:102F800002F200EE102AB8EE400AE9B32F4ADFED54
:102F90002E0AB7EE001A6CB1DFED2D1A012C01D00C
:102FA000022C43D002EE101A1068F8EE422A81EE8D
:102FB000A22A1EE01C68A40611D51B6801EE901A17
:102FC0001168C3F3C103F8EE612AD84001EE900AFC
:102FD000C1F30800F8EE611A81EEA22A0BE001EEBF
:102FE000901ADFED1C2A00BFF8EE611A106882EE1D
:102FF000A12AC0F3080001EE900AF8EE611A40EE33
:10300000201A31EE810A00E015E022EE000A106875
:10301000C0F34620401C00EE900AF8EE600A80EEF5
:10302000201ABCEEC10A10EE100A70BD01EE901A13
:10303000DFED092AD8E7002070BD000010440258D7
:103040000090D00340787D010000003930440258E0
:103050000024744A0024744C20BCBE4B2DE9F05F60
:1030600004007DD0FF4F2078FE4D1837DFF8F48341
:10307000103DC00748D0D8F80000396800F038008B
:10308000102815D0182803D101F0030002280FD012
:103090006068B0F5803F12D010B1B0F5A02F18D005
:1030A000286820F480302860286820F4802009E017
:1030B0002868800328D560680028D2D024E02868DA
:1030C00040F480302860606888B1FEF7AFFD0646A6
:1030D00009E0286840F480202860F0E7FEF7A6FDAC
:1030E000801B64287ED828688003F7D50CE0FEF7A3
:1030F0009DFD064605E000BFFEF798FD801B642895
:10310000F0D828688003F7D42078800756D5D8F8FF
:103110000000DFF85093396810F03800A9F10C096D
:103120000ED0182801D188070AD0E068A8B3296812
:1031300021F0190101432960FEF778FD064628E0D9
:103140002868400702D5E06800288AD0E16828682E
:1031500020F0190008432860FEF768FD064606E0E7
:10316000D2E000BFFEF762FD801B0228BAD82868B3
:103170004007F7D5217CD9F8002022F0FE4242EA30
:103180000161C9F8001019E0FEF750FD801B02280C
:10319000A8D828684007F7D5ECE7FFE7286820F0B3
:1031A00001002860FEF742FD064604E0FEF73EFD02
:1031B000801B022896D828684007F7D42078C006DC
:1031C00046D5D8F80000DFF89C92396800F0380046
:1031D000A9F10409082812D0182805D101F003002C
:1031E000012800E0CEE00AD0E0690028286820D05D
:1031F00040F080002860FEF719FD064615E02868BB
:10320000C00502D5E06980287ED194F82010D9F855
:10321000002022F07C5242EA0161C9F8001017E058
:10322000FEF704FD801B0228A0D82868C005F7D54A
:10323000EBE720F080002860FEF7F8FC064604E08B
:10324000FEF7F4FC801B022890D82868C005F7D44C
:103250002078000729D583486169643000298146B8
:10326000016811D041F001010160FEF7DFFC064664
:1032700005E000BFFEF7DAFC801B022888D8D9F8E9
:1032800000008007F6D510E021F001010160FEF793
:10329000CDFC064605E000BFFEF7C8FC801B0228F7
:1032A00070D8D9F800008007F6D42078800623D59E
:1032B000A0690028286810D040F480502860FEF7EC
:1032C000B5FC064605E000BFFEF7B0FC801B0228F7
:1032D00058D828688004F7D50EE020F48050286084
:1032E000FEF7A4FC064604E0FEF7A0FC801B0228C3
:1032F00048D828688004F7D42078400751D5DFF8F3
:103300006891D9F8001000E015E141F48071C9F826
:103310000010FEF78BFC064605E000BFFEF786FCBA
:10332000801B64282ED8D9F80000C005F6D54D4E74
:10333000A068603601280AD008B1052813D030688B
:1033400020F001003060306820F0040002E03068B6
:1033500040F001003060A06841F2883A98B1FEF771
:1033600065FC81460AE0306840F004003060EEE71A
:10337000FEF75CFCA0EB0901514503D830688007DB
:10338000F6D50EE072E0FEF751FC814606E000BF84
:10339000FEF74CFCA0EB0901514567D83068800767
:1033A000F6D4606A00287CD0DFF8B8A0D8F8001006
:1033B0000AF1200A4FF6F87B0AF10408C1F3C201B2
:1033C0000329AAF104096DD00228286820F0807032
:1033D000286003D0FEF72AFC044681E0FEF726FCB5
:1033E000064604E0FEF722FC801B022875D82868F8
:1033F0008001F7D4E26A40F2F331386854F8283F8C
:10340000884340EA021018433860217B4FF4FE0CD9
:1034100022894FF0FE47208A4902267D521E401E17
:10342000A1F5007189B2C2F308021143761E0CEABD
:1034300000400143484607EA06621143CAF80010FB
:10344000D9F8001021F00101C9F80010D8F80030B7
:10345000266A23EA0B0343EAC601C8F80010D9F82C
:10346000001004E0104402580048025835E0A269F8
:1034700021F00C011143C9F800100168E26921F044
:10348000020111430160016841F48031016001686B
:1034900041F400310160016841F48021016001685C
:1034A00001E06CE020E041F001010160286840F09B
:1034B00080702860FEF7BAFB044604E0FEF7B6FB16
:1034C000001B022809D828688001F7D557E000BF03
:1034D000FEF7ACFB001B022802D90320BDE8F09FD9
:1034E00028688001F4D44AE039680128DAF800003D
:1034F00021D0A26A01F0030393421CD1E26AC1F316
:1035000005118A4217D1216BC0F30802491E8A4275
:1035100011D1616BC0F34622491E91420BD1A16BC0
:10352000C0F30642491E914205D1E16BC0F306602B
:10353000491E814201D00120D0E7A16C4646D8F84F
:103540000000C0F3CC00814219D0D9F800004D46EC
:1035500020F00100C9F80000FEF768FB4FEA000701
:10356000FEF764FBB842FBD0A26C306820EA0B0087
:1035700040EAC2003060286840F001002860002066
:10358000ACE7401EB0F1807F10B501D3012010BD23
:103590004FF0E02460610F21601702F04AFC002028
:1035A000A0610721216110BD70477047704700007E
:1035B000F0B590F83C20012A43D0012280F83C204D
:1035C000D1E90242204ECD6922F440722243D1E972
:1035D000004322F480621A4322F400622243D1E9BC
:1035E000043422F480521A430B6B22F4005222431B
:1035F0000C8B22F480421A43036822F4702242EAC0
:103600000442002422F08052B34242EA050202D072
:103610000E4DAB4210D10F8D22F4700CD1E908622F
:10362000CD6A4CEA075121F08071314321F00071DD
:10363000114321F000522A435A6480F83C40002094
:10364000F0BD0220F0BD0000000001400004014078
:10365000F0B590F83C20012A41D0224E012480F898
:103660003C40022280F83D2002681F4D5368B24260
:10367000D2F808C001D0AA4203D14F6823F47003E6
:103680003B430F6823F070031F4357600268B24248
:1036900019D0B2F1804F16D0144B9A4213D0144B6C
:1036A0009A4210D0134B9A420DD0AA420BD0124B23
:1036B0009A4208D0114B9A4205D0114B9A4202D03F
:1036C000104B9A4204D189682CF080031943916011
:1036D000002180F83D4080F83C100846F0BD0220F3
:1036E000F0BD000000000140000401400004004063
:1036F00000080040000C004000180040004001405D
:1037000000E0004000E4004010B5040003D094F84D
:103710003D0010B107E0012010BD002084F83C00FE
:10372000204600F023F8022084F83D002068211D87
:1037300001F0E8FC012084F8480084F83E0084F899
:103740003F0084F8400084F8410084F8420084F887
:10375000430084F8440084F8450084F8460084F867
:10376000470084F83D00002010BD000008B5016846
:103770001048B1F1804F14D00F4A914219D101681D
:1037800041F01001016000680022114600F01000B5
:1037900000903620FEF702FCBDE808403620FEF718
:1037A000EFBB016841F001010160006800F0010019
:1037B000009008BDE84402580010004090F83D1009
:1037C000012901D0012070471A4A022180F83D10DA
:1037D0000168CB6843F00103CB60006890421AD0C7
:1037E000B0F1804F17D01449884214D01349884251
:1037F00011D0134988420ED0124988420BD0124989
:10380000884208D01149884205D01149884202D027
:103810001049884207D181680F4A1140062906D015
:10382000B1F5803F03D0016841F001010160002043
:103830007047000000000140000400400008004004
:10384000000C00400004014000180040004001400E
:1038500000E0004000E400400700010070B50446AD
:1038600090F83C000025012814D03A4B012684F83A
:103870003C60022084F83D0022689068184020F4E3
:103880007F409060086870282FD010DC10F00F0F78
:1038900003D022E04FF0020070BD4FEA2012072A49
:1038A0001BD2DFE802F0535353534B394100B0F1C0
:1038B000101F4BD009DCB0F5805F0FD0B0F5005F72
:1038C0001ED0B0F5801F08D140E0A0F5801120394E
:1038D0003CD010293AD0202938D0012584F83D6009
:1038E000002084F83C00284670BD4A682068D1E971
:1038F000021301F084FC2068816841F0770109E03F
:103900004A682068D1E9021301F079FC20688168D7
:1039100041F480418160E1E7CA684968206801F0AC
:103920001BFE2068502106E0CA684968206801F043
:1039300024FE2068602101F06BFCCFE7CA6849686B
:10394000206801F009FE20684021F4E72268014662
:103950001046F0E788FFCEFF2DE9F04104000D4648
:1039600003D094F83D0018B108E00120BDE8F081D3
:10397000002084F83C00204600F04CF8244A022045
:1039800084F83D0020688168114081602068211D15
:1039900001F0B8FB226840F20336AF6940F60C4CE8
:1039A0002B684FF2F00EA86891680B439169B14300
:1039B00041EA07210843D5E9031720EA0C00D5E9BD
:1039C000076C20EA0E00D2F820E03F0140EA06260C
:1039D00068686D69314347EA0C37936023680F4389
:1039E00001219F612EF0AA0242EA051322681843C2
:1039F000106284F8481084F83E1084F83F1084F870
:103A0000441084F8451084F83D100020AEE7000013
:103A1000F8BFFEFFF0B587B0044614216846FCF7F6
:103A200085FD3B4900222568C0263A4F0839384BAE
:103A300002243948BD4210D11D6845F002051D60C1
:103A40001B6803F0020305930B6843F001030B604E
:103A50000968009601F0010135E0304FBD421DD1EB
:103A6000186840F004001860186800F00400059021
:103A7000086840F0080008600868694600F008001F
:103A800005904FF4405000902548CDE90142CDE922
:103A9000032400BFFDF7B6FF07B0F0BDDFF884C018
:103AA0000327654516D11D6845F008051D601B6894
:103AB00003F0080305930B6843F001030B600968EA
:103AC000009701F00101CDE901420392CDE90441E3
:103AD0006946DFE714488542DED10D4808300368A7
:103AE00043F002030360006800F0020005900868DC
:103AF00040F00400086008686946009600F0040081
:103B0000CDE901420392CDE904700848C2E7000004
:103B1000E844025800040040000002580008004039
:103B2000000C0258000C004000040140000802583C
:103B300070B504464FF0020094F83E2094F83F50D0
:103B400094F8446094F8453021B104290DD0012A3D
:103B50001AD113E0012A17D1012E15D184F83E00A5
:103B600084F844000021206820E0012D0CD1012BB5
:103B70000AD184F83F0084F8450014E0012D03D1F8
:103B8000012E01D1012B01D0012070BD84F83E002F
:103B900084F83F0084F8440084F84500012220683E
:103BA000002101F01FFB20680122042101F01AFB13
:103BB0002068016841F001010160002070BD70477C
:103BC0002DE9F041044600680027C6680569A90789
:103BD00013D5B10711D5FA1E0261012121772068A2
:103BE00080698007204602D0FFF7E9FF04E000F07B
:103BF000C1F8204600F096F92777680716D57007B8
:103C000014D5226802206FF004011161207720682A
:103C1000806910F4407F204602D0FFF7D0FF04E017
:103C200000F0A8F8204600F07DF92777280715D581
:103C3000300713D5226804206FF008011161207746
:103C40002068C0698007204602D0FFF7B8FF04E073
:103C500000F090F8204600F065F92777E80616D5C1
:103C6000F00614D5226808206FF01001116120774A
:103C70002068C06910F4407F204602D0FFF79FFF04
:103C800004E000F077F8204600F04CF92777E807C9
:103C900008D0F00706D021686FF0010008612046C7
:103CA00000F0D4F9280601D4A80408D5300606D5BA
:103CB00021686FF4025008612046FFF776FCE805A2
:103CC00008D5300606D521686FF48070086120465B
:103CD000FFF76AFC680608D5700606D521686FF004
:103CE00040000861204600F0B2F9A8060AD5B006E7
:103CF00008D521686FF0200008612046BDE8F0413A
:103D0000FFF754BCBDE8F081F0B587B0044614213C
:103D10006846FCF70BFC14492068884222D11348FE
:103D2000016841F010010160006802250321104F75
:103D300000F01000059000244FF42850CDE9024116
:103D4000CDE900050126694638460496FDF75AFE7E
:103D500068030090CDE90154CDE903466946384631
:103D6000FDF750FE07B0F0BD00000140E0440258EE
:103D700000100258704770B5044690F83C000026C9
:103D80000D4601280BD0012084F83C000C2A4AD0B3
:103D900007DC82B1042A20D0082A06D131E00220B3
:103DA00070BD102A53D0142A63D00126002084F855
:103DB0003C00304670BD206801F034FA206881690B
:103DC00041F0080181612068816921F0040181616D
:103DD00020682A698169114311E0206801F074FAB2
:103DE0002068816941F4006181612068816921F462
:103DF0008061816120682969826942EA01218161CB
:103E0000D4E7206801F0ACFA2068C16941F00801EC
:103E1000C1612068C16921F00401C16120682A697B
:103E2000C169114311E0206801F0E6FA2068C16918
:103E300041F40061C1612068C16921F48061C16100
:103E400020682969C26942EA0121C161AEE72068A0
:103E500001F00EFB2068416D41F0080141652068CA
:103E6000416D21F00401416520682A69416D1143CB
:103E700011E0206801F036FB2068416D41F40061DB
:103E800041652068416D21F48061416520682969A0
:103E9000426D42EA0121416588E710B5040003D074
:103EA00094F83D0010B107E0012010BD002084F817
:103EB0003C00204600F022F8022084F83D002068F3
:103EC000211D01F01FF9012084F8480084F83E000C
:103ED00084F83F0084F8400084F8410084F84200F0
:103EE00084F8430084F8440084F8450084F84600D0
:103EF00084F8470084F83D00002010BD08B5006834
:103F00000649884208D10648016841F00101016074
:103F1000006800F00100009008BD000000000140B2
:103F2000F04402587047000030B504464FF00202DA
:103F300069B1042912D0082917D00C291CD01029E6
:103F400021D094F84300012824D0012030BD94F8FA
:103F50003E000128F9D184F83E201DE094F83F008E
:103F60000128F2D184F83F2016E094F8400001289F
:103F7000EBD184F840200FE094F841000128E4D10F
:103F800084F8412008E094F842000128DDD184F84B
:103F9000422001E084F843200122206801F022F948
:103FA0001E4920681E4A1F4B884209D0904207D004
:103FB000984205D01C4DA84202D01C4DA84203D106
:103FC000456C45F4004545642068884218D0B0F13E
:103FD000804F15D01649884212D0164988420FD01A
:103FE000154988420CD090420AD01449884207D023
:103FF000984205D01249884202D01249884207D11E
:104000008168114A1140062906D0B1F5803F03D0DE
:10401000016841F001010160002030BD0000014055
:1040200000040140004001400044014000480140BC
:104030000004004000080040000C00400018004050
:1040400000E0004000E400400700010070477047B6
:1040500030B590F88410012918D0012280F884200E
:104060002421C0F888100022202401680B680D6804
:1040700023F0005325F001050D60426601680B60D6
:10408000C0F8884080F88420104630BD022030BD42
:10409000704770B5044690F8840001281DD00122B5
:1040A00084F884202420C4F8880020680568026809
:1040B00022F0010202602068826822F060620A43F6
:1040C0008260204601F092FA2268202100201560CB
:1040D000C4F8881084F8840070BD022070BD70B5EB
:1040E000044690F8840001281DD0012284F8842021
:1040F0002420C4F8880020680568026822F00102C4
:1041000002602068826822F060420A438260204692
:1041100001F06CFA2268202100201560C4F8881094
:1041200084F8840070BD022070BD704710B5040093
:1041300003D0D4F8880010B107E0012010BD0020A2
:1041400084F88400204600F027F82420C4F8880072
:104150002068016821F001010160A06A10B12046C9
:1041600001F066FA204601F0D7FB0128E6D020686E
:10417000416821F4904141602068816821F02A0162
:1041800081602068016841F0010101602046BDE8BE
:10419000104001F0B1BA00002DE9F043B5B0074678
:1041A00014212EA8FCF7C2F9B8216846FCF7BEF925
:1041B0003149386888425CD100211D9102200C46AB
:1041C000CDE900016846FEF79BF808B1FCF748FD11
:1041D0002A48016841F400210160006800F40020D1
:1041E000339026480838016841F0010101600068F9
:1041F0002EAB022100F0010033904FF4C050062294
:1042000083E813001E482EA9CDE93142FDF7FAFBE1
:104210001C4E3F231C4A4FF480684FF4807930468F
:1042200086E81C00C6E903487461C6E906493462A1
:104230007462FDF7A9F808B1FCF712FD114D40209A
:10424000114A7835C7F88060A832B763E5E80220E4
:1042500085E81101EC600B48C5E90449AC61783090
:10426000EC61083DFDF790F808B1FCF7F9FCFD673B
:10427000AF6335B0BDE8F083004C0040E84402581D
:1042800000000258940000201000024030B4D0F822
:104290008C30202B02D0022030BC7047A9B1A2B1D3
:1042A0000B4D00240368C466AB420BD05B681B0255
:1042B00008D5046854E8003F43F0806344E80035C3
:1042C000002DF6D130BC01F015BD0120E4E700005F
:1042D000000C00582DE9FF414449884215D1444C57
:1042E00047F6FF756E00A4F1240804F132070AE0D6
:1042F0002078552806D16078512808D0522806D059
:10430000532804D0641CBC42F2D9BDE8FF810D22C1
:1043100021466846FCF7C5F80D21684601F0FCFD12
:1043200078B3BDF902002844B0425CD8BDF904005E
:104330002844B04257D8BDF906002844B04252D8AC
:104340009DF80100512804D052281BD053284AD18F
:1043500031E09DF802109DF80300FCF787F988ED25
:10436000000A9DF804109DF80500FCF77FF988ED20
:10437000010A9DF806109DF80700FCF777F988ED13
:10438000020A30E09DF802109DF80300FCF780F966
:1043900088ED030A9DF804109DF80500FCF778F9F4
:1043A00088ED040A9DF806109DF80700FCF770F9E7
:1043B00088ED050A17E09DF802109DF80300FCF750
:1043C0007BF988ED060A9DF804109DF80500FCF7BE
:1043D00073F988ED070A9DF806109DF80700FCF7B1
:1043E0006BF988ED080A0D348DE70000000000200D
:1043F000A80000247047FEE703460B4830B544F69A
:1044000020651B6802684FF47A740020B2FBF5F255
:104410006243521E00D103201C6831EA040401D01B
:10442000002AF6D130BD0000640000240D4808B514
:10443000016841F00101016000680022114600F0AE
:10444000010000900B20FDF7A9FD0B20FDF798FD62
:1044500000222F201146FDF7A1FDBDE808402F20C6
:10446000FDF78EBDD84402582DE9F04387B01421E2
:104470006846FCF75BF83B48016841F010010160B9
:10448000016801F010010591016841F080010160AF
:10449000016801F080010591016841F001010160AE
:1044A000016801F001010591016841F0020101601C
:1044B000016801F002010591016841F00801016005
:1044C000016801F008010591016841F004010160F3
:1044D00000680022244FFF2100F0040005903846B8
:1044E000FDF79EFBDFF884804FF480760022314692
:1044F0004046FDF795FBDFF87890002203214846FF
:10450000FDF78EFB002469467C200294CDE900046F
:104510004846FDF777FA01256946FF200090CDE96E
:10452000015438460394FDF76DFA00966946CDE9CB
:10453000015440460394FDF765FA11200095CDE93A
:104540000104694648460394FDF75CFA0220009096
:10455000CDE90154694648460394FDF753FA07B084
:10456000BDE8F083E0440258000C025800040258F1
:10457000001002580E4800210C4B4FF6FF7210B588
:1045800003604FF4000341608160C160C0E9041220
:104590000162C0E90913C1620163FDF7CFFB002886
:1045A00003D0BDE81040FCF75BBB10BD00240058F1
:1045B000DC00002430B597B0002468461C21149418
:1045C00015941694FBF7B2FF342107A8FBF7AEFF52
:1045D0002F4889222D4980254FF4487380E8160022
:1045E000C0E90334C0E90545FFF757FC08B1FCF703
:1045F00037FB274814A9149415941694FFF728F84C
:1046000008B1FCF72DFB60206946CDE90004204885
:10461000002202940394049405940694FFF7ABFBE4
:1046200008B1FCF71DFB1A4804226946FFF7A3FBFB
:1046300008B1FCF715FB164808226946FFF79BFBFB
:1046400008B1FCF70DFB12480C226946FFF793FBFB
:1046500008B1FCF705FB4FF4005007940894099447
:1046600001030A94CDE90B400D94CDE90F410848B0
:1046700007A911941394FEF79BFF08B1FCF7F0FA19
:104680000348FFF741FB17B030BD000000000140B8
:104690001401002430B587B0174800244FF0804142
:1046A00000948025019420220294A31E0394049474
:1046B00005940694C0E900148561083080E81C0068
:1046C0000838FFF721F808B1FCF7CAFA4FF4805018
:1046D000009009486946FFF7C1F808B1FCF7C0FA35
:1046E000054804A904940694FEF7B2FF002801D0FF
:1046F000FCF7B6FA07B030BD6001002430B58DB0CC
:1047000024216846FBF712FF164800244FF6FF727B
:10471000134D099480230A9401210B94C0E900549D
:10472000C0E9024204618361CDE90014CDE90214BD
:104730000494CDE90541694607940894FFF70CF904
:1047400008B1FCF78DFA074809A909940B94FEF704
:104750007FFF002801D0FCF783FA0DB030BD0000C8
:1047600000040040AC01002430B58DB0242168461F
:10477000FBF7DCFE164800244FF6FF72134D099438
:1047800080230A9401210B94C0E90054C0E902423D
:1047900004618361CDE90014CDE902140494CDE9EC
:1047A0000541694607940894FFF7D6F808B1FCF76D
:1047B00057FA074809A909940B94FEF749FF002806
:1047C00001D0FCF74DFA0DB030BD000000080040EC
:1047D000F801002430B58DB024216846FBF7A6FE11
:1047E000164800244FF6FF72134D099480230A9453
:1047F00001210B94C0E90054C0E9024204618361C5
:10480000CDE90014CDE902140494CDE905416946CF
:1048100007940894FFF7A0F808B1FCF721FA0748BD
:1048200009A909940B94FEF713FF002801D0FCF7A7
:1048300017FA0DB030BD0000000C00404402002407
:104840003EB51148002440F2E7324FF489730094DA
:1048500080210194029481610A4DC0E90242C0E9BD
:104860000053FEF751FF08B1FCF7FAF90648694614
:1048700000940294FEF7ECFE002801D0FCF7F0F95A
:104880003EBD0000001000409002002430B58DB005
:1048900024216846FBF74AFE174800244FF6FF73B1
:1048A000144D099480220A9401210B94C0E900540C
:1048B000C0E902430461C0E90542CDE90014CDE935
:1048C00002140494CDE90541694607940894FFF762
:1048D00043F808B1FCF7C4F9074809A909940A94F8
:1048E0000B94FEF7B5FE002801D0FCF7B9F90DB026
:1048F00030BD000000040140DC0200241848002103
:1049000010B5164C0C224FF4E1330460C0E90131BC
:10491000C160C0E904128161C161016241628162CA
:10492000FFF704FC08B1FCF79BF90D480021FFF7E5
:10493000D6FB08B1FCF794F909480021FFF7A9FB61
:1049400008B1FCF78DF90648FFF782FB002803D079
:10495000BDE81040FCF784B910BD0000004C0040D9
:1049600000000020FEE7000070B5041E0D462DED8E
:10497000048B01DD012200E000222A4E0121304695
:10498000FDF74EF9002C01DC012200E00022304648
:104990000221FDF745F9002D01DD012200E0002292
:1049A00030460421FDF73CF9002D01DC012200E036
:1049B000002230460821FDF733F99FED1B9B00EEE6
:1049C000104AB0EE491BB8EEC00B01F074FA9FED2F
:1049D000188BB0EE481B01F03DFABDEEC00BB0EEF7
:1049E000491B10EE104A00EE105AB8EEC00B01F051
:1049F00062FAB0EE481B01F02DFABDEEC00B002CA0
:104A000010EE100A00DC64420B49A2B200280B68C9
:104A10005A6300DC4042096880B28863BDEC048BB5
:104A200070BD0000000C025800000000000089402A
:104A300000000000000089C0140100240548002186
:104A400010B5FFF771FABDE8104002480421FFF7E6
:104A50006BBA000014010024FEE770B500240021A9
:104A6000204600F0E5F80025002000F003F96D1C59
:104A7000EDB2802DF8D3641CE4B2082CEFD370BDE6
:104A8000104810B586B0016841F00201016000686D
:104A9000112100F00200059003200390CDE90001F0
:104AA00009486946FCF7AEFF084C01221146204632
:104AB000FDF7B6F8012220460221FDF7B1F806B055
:104AC00010BD0000E04402580004025800100258D3
:104AD0002DE9F041124E8025002407460221304680
:104AE00025FA04F23A40FDF79BF8012230461146C0
:104AF000FDF796F8002230460121FDF791F8641C7D
:104B0000E4B2082CEAD3012230461146FDF788F8BA
:104B10003046BDE8F04100220121FDF781B80000D8
:104B20000010025810B50B4C012202212046FDF75F
:104B300077F8012220461146FDF772F80022204640
:104B40000221FDF76DF800222046BDE8104001214A
:104B5000FDF766B80010025810B5094C002202217A
:104B60002046FDF75DF8012220461146FDF758F872
:104B700001222046BDE810400221FDF751B8000097
:104B80000010025800204FF47A7210B50021491C21
:104B90009142FCD3401C9042F8D3FFF771FFAE2046
:104BA00000F057F8D52000F054F8802000F051F8BC
:104BB000A82000F04EF83F2000F04BF8D32000F082
:104BC00048F8002000F045F8402000F042F8A1200D
:104BD00000F03FF8C82000F03CF8DA2000F039F887
:104BE000122000F036F8812000F033F8CF2000F0DA
:104BF00030F8D92000F02DF8F12000F02AF8DB2061
:104C000000F027F8302000F024F8A42000F021F86C
:104C1000A62000F01EF88D2000F01BF8142000F0F4
:104C200018F8AF2000F015F8BDE81040FFF715BFE9
:104C300010B540F0B0000C4600F00BF8102040EA30
:104C4000141000F006F804F00F00BDE81040AFF3B8
:104C5000008010B50446FFF765FF7820FFF738FFA6
:104C60000020FFF735FF2046FFF732FFBDE8104078
:104C7000FFF772BF10B50446FFF754FF7820FFF727
:104C800027FF4020FFF724FF2046FFF721FFBDE864
:104C90001040FFF761BF70472DE9F047454D0446CE
:104CA00089464FF0000A2868C04380070AD0414E69
:104CB000283E306820F080603060FCF7B7FF074680
:104CC000B04608E00120BDE8F08700BFFCF7AEFF6A
:104CD000C01B022867D8D8F800000001F6D420686D
:104CE00029684FF4FE0721F47C313E0241EA00308E
:104CF0002860207AA389B4F804C040022D4D2D49C4
:104D00005B1E227CACF1010C1035091DA0F5007072
:104D100080B2521ECCF3080C07EA034340EA0C00B1
:104D2000184306EA0262104328600868626920F0AE
:104D3000C000104308600A68A06922F02002024304
:104D40000A60281D0A6822F010020A6002684FF605
:104D5000F873E4699A4342EAC40202600868B9F150
:104D6000000F40F010020A6011D00868B9F1010F7D
:104D700011D040F400100860D8F80000444640F01C
:104D80008060C8F80000FCF751FF05460DE0086898
:104D900040F40020EFE740F48010ECE7FCF746FF1A
:104DA000401B022801D903208DE720680001F5D5BA
:104DB000504688E7284402582DE9F047454D0446FF
:104DC00089464FF0000A2868C04380070AD0414E48
:104DD000283E306820F080503060FCF727FF0746FF
:104DE000B04608E00120BDE8F08700BFFCF71EFFD9
:104DF000C01B022867D8D8F800008000F6D42088AD
:104E000029684FF4FE0721F07C713E0241EA005010
:104E10002860207AA389B4F804C040022D4D2D49A2
:104E20005B1E227CACF1010C1835091DA0F5007049
:104E300080B2521ECCF3080C07EA034340EA0C0090
:104E4000184306EA0262104328600868626920F489
:104E50004060104308600A68A06922F400720243AF
:104E60000A60281D0A6822F480720A6002684FF600
:104E7000F873E4699A4342EAC40202600868B9F12F
:104E8000000F40F480720A6011D00868B9F1010F78
:104E900011D040F080700860D8F80000444640F01F
:104EA0008050C8F80000FCF7C1FE05460DE0086818
:104EB00040F48000EFE740F40000ECE7FCF7B6FEBA
:104EC000401B022801D903208DE720688000F5D51A
:104ED000504688E7284402587047FCF7ADBE0000F2
:104EE000F0B59DB04C216846FBF720FB202113A8AC
:104EF000FBF71CFB0220FDF783F81E48016821F434
:104F0000404101600168002401F440411B910168A7
:104F10008904FCD540250220009001210C26CDE912
:104F20000315CDE909042223CDE90D103702CDE99F
:104F30000F0604226846CDE90B23CDE91147FEF7A1
:104F40008DF808B172B6FEE708221A95CDE916254C
:104F5000D30113AA3F200321CDE9185382E813009F
:104F600013A8FDF76BFE002801D072B6FEE71DB056
:104F7000F0BD0000184802582D48F0B52D4A0168D0
:104F800041F470010160106800F00F00072804D29E
:104F9000106820F00F00C01D106027490020264C2B
:104FA00010340B68254D43F001030B6020600B6843
:104FB0002B400B60136803F00F03072B04D9136811
:104FC00023F00F03DB1D13601B4C1D4A18341D4BCF
:104FD000261D371D2060184C1B4D28343060261DBF
:104FE0003860371D23603B1D35601C1D3A60251D50
:104FF0002E1D1860331D22602860326018600B6817
:105000000D4A0D4C23F48023D4320B6060342060B1
:105010001068C0040BD4136843F2D2000B4943F468
:10502000805313600860106820F480501060F0BD59
:1050300088ED00E000200052004402587FEDF6EABF
:1050400080020101000202020000FF010040005244
:105050002DE9F0411F492048FBF7D4FD1F492048A6
:10506000FBF7D0FDFBF70CFE1E4E1F4C3060207886
:10507000012814D11D4F0502012229463846FCF7AC
:10508000CFFD1B4930680A681A49801A884206D940
:1050900000202070024629463846FCF7C1FD164C18
:1050A000164D207801280CD12878012809D100F06C
:1050B00047FFC117B060F16000F060FFC1173061B9
:1050C00071612078287820782878BDE8F0410C4874
:1050D000FEF776BDAC0100246C00002444020024DD
:1050E00078000024400000243A0000240004025804
:1050F0003C00002440420F00000000240100002476
:10510000900200242DE9F0472C4B4FF0804A2C4DA3
:10511000026898422B4E2C4F2C4C09D0504507D09A
:10512000A84205D0B04203D0B84201D0A04205D178
:10513000D1F804C022F070024CEA0202DFF890C0FD
:10514000DFF890809842DFF8909015D0504513D04A
:10515000A84211D0B0420FD0B8420DD0A0420BD01F
:10516000604509D0404507D0484505D01B4DA842B1
:1051700002D01B4DA84203D1CD6822F440722A43CD
:105180008E684D6922F08002C6620E682A439842FA
:10519000866207D0A04205D0604503D0404501D0CB
:1051A000484501D1096901630368012143F0040303
:1051B000036041610260BDE8F0870000000001402B
:1051C0000004004000080040000C004000040140C2
:1051D00000400140004401400048014000E0004020
:1051E00000E4004010B5046A012301F01F018B4068
:1051F0009C4304628A40016A1143016210BD42EA85
:10520000032283680A4323F47F410A438260704784
:10521000034B82681A400A4342F0070181607047DD
:105220008FFFCFFF2DE9F04FDFF88480214EDFF8AC
:105230008890DFF888B0026A036AB042DFF880A085
:1052400022F0020C1F4F23F00102026242688569BE
:105250008B680C6805EA080525F0030543EA0C0392
:1052600044EA050407D0484505D0584503D05045C9
:1052700001D0B84205D1CD6823F008031D4325F0C5
:105280000403B04207D0484505D0584503D05045E7
:1052900001D0B84205D122F44076D1E90552354318
:1052A0002A4342608461496841630362BDE8F08F2C
:1052B0008FFFFEFF0000014000040140004001405C
:1052C0000044014000480140F0B5DFF87CE01F4C8D
:1052D0001F4D026A036AA04222F0200623F0100349
:1052E000036242688369D1F808C00F6803EA0E03BD
:1052F00023F4407E46EA0C134EEA072601D0A8426A
:1053000006D1CF6823F0800343EA071323F040035C
:10531000A0420AD0A84208D00E4CA04205D00E4CA4
:10532000A04202D00D4CA04207D1D1E9054522F49C
:10533000406242EA840242EA85024260866149682C
:1053400081630362F0BD0000FF8FFFFE000001409B
:105350000004014000400140004401400048014079
:10536000F0B5DFF87CE01F4D1F4E026A036AA842C9
:1053700022F4007723F4807303624368C269D1F892
:1053800008C002EA0E020C6822F0030E47EA0C2263
:1053900044EA0E0401D0B04206D1CF6822F4006284
:1053A00042EA072222F48062A8420AD0B04208D022
:1053B0000E4DA84205D00E4DA84202D00D4DA84278
:1053C00007D1D1E9055623F4405343EA051343EAD4
:1053D00006134360C4614968C1630262F0BD000006
:1053E0008FFFFEFF0000014000040140004001402B
:1053F0000044014000480140F0B5046A026A22F40A
:10540000805202624268C36924F40054DFF848C045
:105410008E680D6803EA0C03104F23F4407344EACE
:105420000634B84243EA05230BD00D4DA84208D0FC
:105430000C4DA84205D00C4DA84202D00B4DA842FD
:1054400004D14D6922F4804242EA85124260C36170
:10545000496801640462F0BDFF8FFFFE0000014057
:105460000004014000400140004401400048014068
:10547000F0B5164F164B026A046A984222F40035C2
:1054800024F4803303624268436D0E890C6803EA9A
:10549000070344EA030445EA06430BD00D4DA84236
:1054A00008D00D4DA84205D00C4DA84202D00C4D9D
:1054B000A84204D14D6922F4803242EA05224260BA
:1054C0004465496881650362F0BD00008FFFFEFFFF
:1054D0000000014000040140004001400044014040
:1054E00000480140F0B5164F164B026A046A984214
:1054F00024F48013036222F400144268436D0E8981
:105500000D6803EA070344EA065443EA05230BD077
:105510000D4DA84208D00D4DA84205D00C4DA84213
:1055200002D00C4DA84204D14D6922F4802242EAF7
:105530008522426043654968C1650462F0BD000090
:10554000FF8FFFFE000001400004014000400140C9
:10555000004401400048014010B5036A046A23F08A
:105560000A0324F00104046284690B4324F0F0016F
:1055700041EA02118161036210BD10B5036A046A39
:1055800023F0A00324F010040462846943EA0111AB
:1055900024F4704343EA02328261016210BD0000CC
:1055A00070B50F4C0F4D104E05E0296868683068E3
:1055B0007268FFF7D9F9A07840B9607830B92078DF
:1055C00020B9E07810B920790028EED04FF4967019
:1055D0000146FFF7C9F9BDE87040FBF73DB8000090
:1055E00030000024500000244800002430B5416EF3
:1055F000B9B101680D4B03F108048A688968C2F3E8
:105600004262490F5D5C615C2D01B5FBF1F1A0F8D0
:105610006A10995CA25C0901B1FBF2F1A0F8681074
:1056200030BD0121A0F86A10F8E70000F061000821
:1056300090F82810090706D50168836B4A6822F4A0
:1056400000421A434A6090F82810C90706D0016842
:10565000C36A4A6822F400321A434A6090F828105C
:10566000890706D50168036B4A6822F480321A4321
:105670004A6090F82810490706D50168436B4A68CC
:1056800022F480221A434A6090F82810C90606D5F1
:105690000168C36B8A6822F480521A438A6090F8CA
:1056A0002810890606D50168036C8A6822F4005226
:1056B0001A438A6090F82810490611D50168436C96
:1056C0004A6822F480121A434A60416CB1F5801F87
:1056D00006D10168836C4A6822F4C0021A434A600A
:1056E00090F82810090606D50168C26C486820F4B5
:1056F00000201043486070472DE9F8430025044618
:10570000C0F89050FCF792FA8046206820266FF08F
:105710007E470068000713D5002243463104204627
:10572000009700F03BFB58B1216851E8000F20F0D2
:10573000800041E80002002AF6D1C4F8886021E028
:1057400020680068400722D5002243464FF48001BC
:105750002046009700F022FBC8B1206850E8001FE7
:1057600021F4907140E80012002AF6D12068083038
:1057700050E8001F21F0010140E80012002AF5D195
:10578000C4F88C60032084F88450BDE8F883C4F822
:105790008860C4F88C60E5662567002084F8845032
:1057A000F3E770B5846B00252168D4F88800D4F83D
:1057B0008C608968090606D5212804D1A4F85650C2
:1057C000204600F091F820688068400606D5222E19
:1057D00004D1A4F85E50204600F05CF8D4F89000A4
:1057E00040F01000C4F890002046FEF79EFC70BD0B
:1057F00010B5C1690022806BB1F5807F2DD0A0F873
:105800005E20036853E8001F21F4807143E8001410
:10581000002CF6D10168083151E8003F23F0010364
:1058200041E80034002CF5D10168083151E8003F0F
:1058300023F0400341E80034002CF5D12021C0F8CA
:105840008C10C16E012908D1016851E8003F23F096
:10585000100341E80034002CF6D10267C16E012923
:1058600002D0FEF737FD10BDB0F85C10FEF710FC5B
:1058700010BD10B5806B01210167C16E012902D0F6
:10588000FEF7B8FD10BDB0F85C104908FEF700FC4B
:1058900010BD000010B5026852E8001F21F490719D
:1058A00042E80013002BF6D10E4B0268083252E892
:1058B000001F194042E80014002CF6D1C16E0129E6
:1058C00008D1026852E8001F21F0100142E80013DD
:1058D000002BF6D100212022C0F88C20C166416740
:1058E00010BD0000FEFFFFEF026852E8001F21F02C
:1058F000C00142E80013002BF6D10168083151E8DD
:10590000002F22F4000241E80023002BF5D12021D2
:10591000C0F88810704700002DE9F0430446806805
:10592000E24E87B0E24B2168D4E90427D4F81CC0CA
:1059300010430A68002547EA0C0738433240024307
:105940000A602068E268416821F4405111434160D7
:105950002268A1699A4201D0206A01439668DFF863
:1059600054C3D54FD54806EA0C060E43966021680D
:10597000666ACA6A22F00F023243CA622268BA42D9
:105980000ED1006800F0380018286FD07ADCB8B368
:1059900008286CD010286BD18BE0282868D18EE0C5
:1059A000C7498A4209D1006800F0070006285FD283
:1059B000DFE800F0507D7F818385C2498A4209D1AA
:1059C000006800F0070006287BD2DFE800F0437093
:1059D00072747678BC498A4209D1006800F00700E9
:1059E00006286ED2DFE800F036636567696BB74959
:1059F0008A420BD1006800F00700062861D200E05F
:105A000043E0DFE800F0275456585A5CB0498A4218
:105A100006D1006800F0380018284CD0B7DD31E01E
:105A2000AC498A4209D1006800F00700062848D234
:105A3000DFE800F0103D3F414345A7498A420BD1C2
:105A4000006800F0070006283BD2DFE800F00330D2
:105A500032343638002035E0A0498A4209D1006846
:105A600000F03800182826D091DD0BE023E01EE07E
:105A700027E09B498A420AD1006800F038001828C4
:105A800019D084DD202888D11CE001201AE09A4238
:105A900017D18A48001D006800F00700062810D2C0
:105AA000DFE800F0030507090B0D02200AE00420DF
:105AB00008E0082006E0102004E0202002E040205A
:105AC00000E080208749DFF820829A42874A4FF41D
:105AD00000434FEA21174FF000064ED110281AD08C
